:100000000C9446000C945D000C945D000C945D0013
:100010000C945D000C945D000C945D000C945D00EC
:100020000C945D000C945D000C945D000C945D00DC
:100030000C945D000C945D000C945D000C945D00CC
:100040000C945D000C945D000C945D000C945D00BC
:100050000C945D000C945D000C945D000C945D00AC
:100060000C945D000C945D000C945D000C945D009C
:100070000C945D000C945D000C945D000C945D008C
:100080000C945D000C945D000C945D0011241FBE67
:10009000CFEFD0E4DEBFCDBF11E0A0E0B1E0ECEDEA
:1000A000F1E000E00BBF02C007900D92AA31B1074A
:1000B000D9F70E94DD000C94EC000C940000CF9363
:1000C000C82F8A3019F48DE00E945F009091C00023
:1000D00095FFFCCFC093C60080E090E0CF910895DB
:1000E00040E050E00CC000002F5F3F4F02C020E016
:1000F00030E0273063E03607B4F34F5F5F4F4817B7
:100100005907ACF308955E9888B95F9A00005F982C
:1001100082E090E00E947000089581E00E948300D8
:10012000089584E690E00E94700088E30E948300B6
:1001300086E00E9483008FE00E94830081E00E949D
:1001400083008AE090E00E94700008955E9A88B96A
:100150005F9A00005F9881E090E00E94700008952F
:10016000813120F481580E948300089581550E94B6
:1001700083000895EF92FF920F931F93CF93DF9325
:10018000182FEB010E948D000EC001E0010F812F9E
:100190000E94B0007E018FEFE81AF80A88810E9461
:1001A000A600102FE70188818111EFCFDF91CF9159
:1001B0001F910F91FF90EF90089511B88FEF82B9C2
:1001C00087B918B88AB91BB80E9491006EE071E037
:0C01D00081E00E94BA00FFCFF894FFCF3E
:1001DC0000000002000000005F0000000000486505
:0A01EC006C6C6F20576F726C64009A
:00000001FF
